{
  "_format": "hh-sol-artifact-1",
  "contractName": "SoulBoundTest",
  "sourceName": "contracts/soulboundNFT.sol",
  "abi": [
    {
      "inputs": [],
      "stateMutability": "nonpayable",
      "type": "constructor"
    },
    {
      "anonymous": false,
      "inputs": [
        {
          "indexed": true,
          "internalType": "address",
          "name": "owner",
          "type": "address"
        },
        {
          "indexed": true,
          "internalType": "address",
          "name": "approved",
          "type": "address"
        },
        {
          "indexed": true,
          "internalType": "uint256",
          "name": "tokenId",
          "type": "uint256"
        }
      ],
      "name": "Approval",
      "type": "event"
    },
    {
      "anonymous": false,
      "inputs": [
        {
          "indexed": true,
          "internalType": "address",
          "name": "owner",
          "type": "address"
        },
        {
          "indexed": true,
          "internalType": "address",
          "name": "operator",
          "type": "address"
        },
        {
          "indexed": false,
          "internalType": "bool",
          "name": "approved",
          "type": "bool"
        }
      ],
      "name": "ApprovalForAll",
      "type": "event"
    },
    {
      "anonymous": false,
      "inputs": [
        {
          "indexed": true,
          "internalType": "address",
          "name": "previousOwner",
          "type": "address"
        },
        {
          "indexed": true,
          "internalType": "address",
          "name": "newOwner",
          "type": "address"
        }
      ],
      "name": "OwnershipTransferred",
      "type": "event"
    },
    {
      "anonymous": false,
      "inputs": [
        {
          "indexed": true,
          "internalType": "address",
          "name": "from",
          "type": "address"
        },
        {
          "indexed": true,
          "internalType": "address",
          "name": "to",
          "type": "address"
        },
        {
          "indexed": true,
          "internalType": "uint256",
          "name": "tokenId",
          "type": "uint256"
        }
      ],
      "name": "Transfer",
      "type": "event"
    },
    {
      "inputs": [
        {
          "internalType": "address",
          "name": "to",
          "type": "address"
        },
        {
          "internalType": "uint256",
          "name": "tokenId",
          "type": "uint256"
        }
      ],
      "name": "approve",
      "outputs": [],
      "stateMutability": "nonpayable",
      "type": "function"
    },
    {
      "inputs": [
        {
          "internalType": "address",
          "name": "owner",
          "type": "address"
        }
      ],
      "name": "balanceOf",
      "outputs": [
        {
          "internalType": "uint256",
          "name": "",
          "type": "uint256"
        }
      ],
      "stateMutability": "view",
      "type": "function"
    },
    {
      "inputs": [
        {
          "internalType": "uint256",
          "name": "tokenId",
          "type": "uint256"
        }
      ],
      "name": "getApproved",
      "outputs": [
        {
          "internalType": "address",
          "name": "",
          "type": "address"
        }
      ],
      "stateMutability": "view",
      "type": "function"
    },
    {
      "inputs": [
        {
          "internalType": "address",
          "name": "owner",
          "type": "address"
        },
        {
          "internalType": "address",
          "name": "operator",
          "type": "address"
        }
      ],
      "name": "isApprovedForAll",
      "outputs": [
        {
          "internalType": "bool",
          "name": "",
          "type": "bool"
        }
      ],
      "stateMutability": "view",
      "type": "function"
    },
    {
      "inputs": [],
      "name": "name",
      "outputs": [
        {
          "internalType": "string",
          "name": "",
          "type": "string"
        }
      ],
      "stateMutability": "view",
      "type": "function"
    },
    {
      "inputs": [],
      "name": "owner",
      "outputs": [
        {
          "internalType": "address",
          "name": "",
          "type": "address"
        }
      ],
      "stateMutability": "view",
      "type": "function"
    },
    {
      "inputs": [
        {
          "internalType": "uint256",
          "name": "tokenId",
          "type": "uint256"
        }
      ],
      "name": "ownerOf",
      "outputs": [
        {
          "internalType": "address",
          "name": "",
          "type": "address"
        }
      ],
      "stateMutability": "view",
      "type": "function"
    },
    {
      "inputs": [],
      "name": "renounceOwnership",
      "outputs": [],
      "stateMutability": "nonpayable",
      "type": "function"
    },
    {
      "inputs": [
        {
          "internalType": "address",
          "name": "to",
          "type": "address"
        },
        {
          "internalType": "string",
          "name": "uri",
          "type": "string"
        }
      ],
      "name": "safeMint",
      "outputs": [],
      "stateMutability": "nonpayable",
      "type": "function"
    },
    {
      "inputs": [
        {
          "internalType": "address",
          "name": "from",
          "type": "address"
        },
        {
          "internalType": "address",
          "name": "to",
          "type": "address"
        },
        {
          "internalType": "uint256",
          "name": "tokenId",
          "type": "uint256"
        }
      ],
      "name": "safeTransferFrom",
      "outputs": [],
      "stateMutability": "nonpayable",
      "type": "function"
    },
    {
      "inputs": [
        {
          "internalType": "address",
          "name": "from",
          "type": "address"
        },
        {
          "internalType": "address",
          "name": "to",
          "type": "address"
        },
        {
          "internalType": "uint256",
          "name": "tokenId",
          "type": "uint256"
        },
        {
          "internalType": "bytes",
          "name": "data",
          "type": "bytes"
        }
      ],
      "name": "safeTransferFrom",
      "outputs": [],
      "stateMutability": "nonpayable",
      "type": "function"
    },
    {
      "inputs": [
        {
          "internalType": "address",
          "name": "operator",
          "type": "address"
        },
        {
          "internalType": "bool",
          "name": "approved",
          "type": "bool"
        }
      ],
      "name": "setApprovalForAll",
      "outputs": [],
      "stateMutability": "nonpayable",
      "type": "function"
    },
    {
      "inputs": [
        {
          "internalType": "bytes4",
          "name": "interfaceId",
          "type": "bytes4"
        }
      ],
      "name": "supportsInterface",
      "outputs": [
        {
          "internalType": "bool",
          "name": "",
          "type": "bool"
        }
      ],
      "stateMutability": "view",
      "type": "function"
    },
    {
      "inputs": [],
      "name": "symbol",
      "outputs": [
        {
          "internalType": "string",
          "name": "",
          "type": "string"
        }
      ],
      "stateMutability": "view",
      "type": "function"
    },
    {
      "inputs": [
        {
          "internalType": "uint256",
          "name": "tokenId",
          "type": "uint256"
        }
      ],
      "name": "tokenURI",
      "outputs": [
        {
          "internalType": "string",
          "name": "",
          "type": "string"
        }
      ],
      "stateMutability": "view",
      "type": "function"
    },
    {
      "inputs": [
        {
          "internalType": "address",
          "name": "from",
          "type": "address"
        },
        {
          "internalType": "address",
          "name": "to",
          "type": "address"
        },
        {
          "internalType": "uint256",
          "name": "tokenId",
          "type": "uint256"
        }
      ],
      "name": "transferFrom",
      "outputs": [],
      "stateMutability": "nonpayable",
      "type": "function"
    },
    {
      "inputs": [
        {
          "internalType": "address",
          "name": "newOwner",
          "type": "address"
        }
      ],
      "name": "transferOwnership",
      "outputs": [],
      "stateMutability": "nonpayable",
      "type": "function"
    }
  ],
  "bytecode": "0x60806040523480156200001157600080fd5b506040518060400160405280600d81526020016c14dbdd5b109bdd5b9915195cdd609a1b8152506040518060400160405280600381526020016214d09560ea1b815250816000908162000065919062000192565b50600162000074828262000192565b505050620000916200008b6200009760201b60201c565b6200009b565b6200025e565b3390565b600780546001600160a01b038381166001600160a01b0319831681179093556040519116919082907f8be0079c531659141344cd1fd0a4f28419497f9722a3daafe3b4186f6b6457e090600090a35050565b634e487b7160e01b600052604160045260246000fd5b600181811c908216806200011857607f821691505b6020821081036200013957634e487b7160e01b600052602260045260246000fd5b50919050565b601f8211156200018d57600081815260208120601f850160051c81016020861015620001685750805b601f850160051c820191505b81811015620001895782815560010162000174565b5050505b505050565b81516001600160401b03811115620001ae57620001ae620000ed565b620001c681620001bf845462000103565b846200013f565b602080601f831160018114620001fe5760008415620001e55750858301515b600019600386901b1c1916600185901b17855562000189565b600085815260208120601f198616915b828110156200022f578886015182559484019460019091019084016200020e565b50858210156200024e5787850151600019600388901b60f8161c191681555b5050505050600190811b01905550565b611a95806200026e6000396000f3fe608060405234801561001057600080fd5b506004361061011b5760003560e01c8063715018a6116100b2578063b88d4fde11610081578063d204c45e11610066578063d204c45e14610251578063e985e9c514610264578063f2fde38b146102a057600080fd5b8063b88d4fde1461022b578063c87b56dd1461023e57600080fd5b8063715018a6146101f75780638da5cb5b146101ff57806395d89b4114610210578063a22cb4651461021857600080fd5b806323b872dd116100ee57806323b872dd1461019d57806342842e0e146101b05780636352211e146101c357806370a08231146101d657600080fd5b806301ffc9a71461012057806306fdde0314610148578063081812fc1461015d578063095ea7b314610188575b600080fd5b61013361012e3660046114d7565b6102b3565b60405190151581526020015b60405180910390f35b610150610350565b60405161013f9190611544565b61017061016b366004611557565b6103e2565b6040516001600160a01b03909116815260200161013f565b61019b61019636600461158c565b610409565b005b61019b6101ab3660046115b6565b61055d565b61019b6101be3660046115b6565b6105e4565b6101706101d1366004611557565b6105ff565b6101e96101e43660046115f2565b610664565b60405190815260200161013f565b61019b6106fe565b6007546001600160a01b0316610170565b610150610712565b61019b61022636600461160d565b610721565b61019b6102393660046116d5565b610730565b61015061024c366004611557565b6107be565b61019b61025f366004611751565b6107c9565b6101336102723660046117b3565b6001600160a01b03918216600090815260056020908152604080832093909416825291909152205460ff1690565b61019b6102ae3660046115f2565b610800565b60006001600160e01b031982167f80ac58cd00000000000000000000000000000000000000000000000000000000148061031657506001600160e01b031982167f5b5e139f00000000000000000000000000000000000000000000000000000000145b8061034a57507f01ffc9a7000000000000000000000000000000000000000000000000000000006001600160e01b03198316145b92915050565b60606000805461035f906117e6565b80601f016020809104026020016040519081016040528092919081815260200182805461038b906117e6565b80156103d85780601f106103ad576101008083540402835291602001916103d8565b820191906000526020600020905b8154815290600101906020018083116103bb57829003601f168201915b5050505050905090565b60006103ed82610890565b506000908152600460205260409020546001600160a01b031690565b6000610414826105ff565b9050806001600160a01b0316836001600160a01b0316036104a25760405162461bcd60e51b815260206004820152602160248201527f4552433732313a20617070726f76616c20746f2063757272656e74206f776e6560448201527f720000000000000000000000000000000000000000000000000000000000000060648201526084015b60405180910390fd5b336001600160a01b03821614806104dc57506001600160a01b038116600090815260056020908152604080832033845290915290205460ff165b61054e5760405162461bcd60e51b815260206004820152603e60248201527f4552433732313a20617070726f76652063616c6c6572206973206e6f7420746f60448201527f6b656e206f776e6572206e6f7220617070726f76656420666f7220616c6c00006064820152608401610499565b61055883836108f4565b505050565b610567338261096f565b6105d95760405162461bcd60e51b815260206004820152602e60248201527f4552433732313a2063616c6c6572206973206e6f7420746f6b656e206f776e6560448201527f72206e6f7220617070726f7665640000000000000000000000000000000000006064820152608401610499565b6105588383836109ee565b61055883838360405180602001604052806000815250610730565b6000818152600260205260408120546001600160a01b03168061034a5760405162461bcd60e51b815260206004820152601860248201527f4552433732313a20696e76616c696420746f6b656e20494400000000000000006044820152606401610499565b60006001600160a01b0382166106e25760405162461bcd60e51b815260206004820152602960248201527f4552433732313a2061646472657373207a65726f206973206e6f74206120766160448201527f6c6964206f776e657200000000000000000000000000000000000000000000006064820152608401610499565b506001600160a01b031660009081526003602052604090205490565b610706610bd3565b6107106000610c2d565b565b60606001805461035f906117e6565b61072c338383610c8c565b5050565b61073a338361096f565b6107ac5760405162461bcd60e51b815260206004820152602e60248201527f4552433732313a2063616c6c6572206973206e6f7420746f6b656e206f776e6560448201527f72206e6f7220617070726f7665640000000000000000000000000000000000006064820152608401610499565b6107b884848484610d5a565b50505050565b606061034a82610dd8565b6107d1610bd3565b60006107dc60085490565b90506107ec600880546001019055565b6107f68382610ee0565b6105588183610efa565b610808610bd3565b6001600160a01b0381166108845760405162461bcd60e51b815260206004820152602660248201527f4f776e61626c653a206e6577206f776e657220697320746865207a65726f206160448201527f64647265737300000000000000000000000000000000000000000000000000006064820152608401610499565b61088d81610c2d565b50565b6000818152600260205260409020546001600160a01b031661088d5760405162461bcd60e51b815260206004820152601860248201527f4552433732313a20696e76616c696420746f6b656e20494400000000000000006044820152606401610499565b6000818152600460205260409020805473ffffffffffffffffffffffffffffffffffffffff19166001600160a01b0384169081179091558190610936826105ff565b6001600160a01b03167f8c5be1e5ebec7d5bd14f71427d1e84f3dd0314c0f7b2291e5b200ac8c7c3b92560405160405180910390a45050565b60008061097b836105ff565b9050806001600160a01b0316846001600160a01b031614806109c257506001600160a01b0380821660009081526005602090815260408083209388168352929052205460ff165b806109e65750836001600160a01b03166109db846103e2565b6001600160a01b0316145b949350505050565b826001600160a01b0316610a01826105ff565b6001600160a01b031614610a7d5760405162461bcd60e51b815260206004820152602560248201527f4552433732313a207472616e736665722066726f6d20696e636f72726563742060448201527f6f776e65720000000000000000000000000000000000000000000000000000006064820152608401610499565b6001600160a01b038216610af85760405162461bcd60e51b8152602060048201526024808201527f4552433732313a207472616e7366657220746f20746865207a65726f2061646460448201527f72657373000000000000000000000000000000000000000000000000000000006064820152608401610499565b610b03838383610f9c565b610b0e6000826108f4565b6001600160a01b0383166000908152600360205260408120805460019290610b37908490611836565b90915550506001600160a01b0382166000908152600360205260408120805460019290610b65908490611849565b9091555050600081815260026020526040808220805473ffffffffffffffffffffffffffffffffffffffff19166001600160a01b0386811691821790925591518493918716917fddf252ad1be2c89b69c2b068fc378daa952ba7f163c4a11628f55a4df523b3ef91a4505050565b6007546001600160a01b031633146107105760405162461bcd60e51b815260206004820181905260248201527f4f776e61626c653a2063616c6c6572206973206e6f7420746865206f776e65726044820152606401610499565b600780546001600160a01b0383811673ffffffffffffffffffffffffffffffffffffffff19831681179093556040519116919082907f8be0079c531659141344cd1fd0a4f28419497f9722a3daafe3b4186f6b6457e090600090a35050565b816001600160a01b0316836001600160a01b031603610ced5760405162461bcd60e51b815260206004820152601960248201527f4552433732313a20617070726f766520746f2063616c6c6572000000000000006044820152606401610499565b6001600160a01b03838116600081815260056020908152604080832094871680845294825291829020805460ff191686151590811790915591519182527f17307eab39ab6107e8899845ad3d59bd9653f200f220920489ca2b5937696c31910160405180910390a3505050565b610d658484846109ee565b610d7184848484610ff3565b6107b85760405162461bcd60e51b815260206004820152603260248201527f4552433732313a207472616e7366657220746f206e6f6e20455243373231526560448201527131b2b4bb32b91034b6b83632b6b2b73a32b960711b6064820152608401610499565b6060610de382610890565b60008281526006602052604081208054610dfc906117e6565b80601f0160208091040260200160405190810160405280929190818152602001828054610e28906117e6565b8015610e755780601f10610e4a57610100808354040283529160200191610e75565b820191906000526020600020905b815481529060010190602001808311610e5857829003601f168201915b505050505090506000610e9360408051602081019091526000815290565b90508051600003610ea5575092915050565b815115610ed7578082604051602001610ebf92919061185c565b60405160208183030381529060405292505050919050565b6109e68461113f565b61072c8282604051806020016040528060008152506111b3565b6000828152600260205260409020546001600160a01b0316610f845760405162461bcd60e51b815260206004820152602e60248201527f45524337323155524953746f726167653a2055524920736574206f66206e6f6e60448201527f6578697374656e7420746f6b656e0000000000000000000000000000000000006064820152608401610499565b600082815260066020526040902061055882826118d9565b6001600160a01b038316156105585760405162461bcd60e51b815260206004820152601e60248201527f4572723a20746f6b656e207472616e7366657220697320424c4f434b454400006044820152606401610499565b60006001600160a01b0384163b1561113457604051630a85bd0160e11b81526001600160a01b0385169063150b7a0290611037903390899088908890600401611999565b6020604051808303816000875af1925050508015611072575060408051601f3d908101601f1916820190925261106f918101906119d5565b60015b61111a573d8080156110a0576040519150601f19603f3d011682016040523d82523d6000602084013e6110a5565b606091505b5080516000036111125760405162461bcd60e51b815260206004820152603260248201527f4552433732313a207472616e7366657220746f206e6f6e20455243373231526560448201527131b2b4bb32b91034b6b83632b6b2b73a32b960711b6064820152608401610499565b805181602001fd5b6001600160e01b031916630a85bd0160e11b1490506109e6565b506001949350505050565b606061114a82610890565b600061116160408051602081019091526000815290565b9050600081511161118157604051806020016040528060008152506111ac565b8061118b84611231565b60405160200161119c92919061185c565b6040516020818303038152906040525b9392505050565b6111bd8383611366565b6111ca6000848484610ff3565b6105585760405162461bcd60e51b815260206004820152603260248201527f4552433732313a207472616e7366657220746f206e6f6e20455243373231526560448201527131b2b4bb32b91034b6b83632b6b2b73a32b960711b6064820152608401610499565b60608160000361127457505060408051808201909152600181527f3000000000000000000000000000000000000000000000000000000000000000602082015290565b8160005b811561129e5780611288816119f2565b91506112979050600a83611a21565b9150611278565b60008167ffffffffffffffff8111156112b9576112b9611649565b6040519080825280601f01601f1916602001820160405280156112e3576020820181803683370190505b5090505b84156109e6576112f8600183611836565b9150611305600a86611a35565b611310906030611849565b60f81b81838151811061132557611325611a49565b60200101907effffffffffffffffffffffffffffffffffffffffffffffffffffffffffffff1916908160001a90535061135f600a86611a21565b94506112e7565b6001600160a01b0382166113bc5760405162461bcd60e51b815260206004820181905260248201527f4552433732313a206d696e7420746f20746865207a65726f20616464726573736044820152606401610499565b6000818152600260205260409020546001600160a01b0316156114215760405162461bcd60e51b815260206004820152601c60248201527f4552433732313a20746f6b656e20616c7265616479206d696e746564000000006044820152606401610499565b61142d60008383610f9c565b6001600160a01b0382166000908152600360205260408120805460019290611456908490611849565b9091555050600081815260026020526040808220805473ffffffffffffffffffffffffffffffffffffffff19166001600160a01b03861690811790915590518392907fddf252ad1be2c89b69c2b068fc378daa952ba7f163c4a11628f55a4df523b3ef908290a45050565b6001600160e01b03198116811461088d57600080fd5b6000602082840312156114e957600080fd5b81356111ac816114c1565b60005b8381101561150f5781810151838201526020016114f7565b50506000910152565b600081518084526115308160208601602086016114f4565b601f01601f19169290920160200192915050565b6020815260006111ac6020830184611518565b60006020828403121561156957600080fd5b5035919050565b80356001600160a01b038116811461158757600080fd5b919050565b6000806040838503121561159f57600080fd5b6115a883611570565b946020939093013593505050565b6000806000606084860312156115cb57600080fd5b6115d484611570565b92506115e260208501611570565b9150604084013590509250925092565b60006020828403121561160457600080fd5b6111ac82611570565b6000806040838503121561162057600080fd5b61162983611570565b91506020830135801515811461163e57600080fd5b809150509250929050565b634e487b7160e01b600052604160045260246000fd5b600067ffffffffffffffff8084111561167a5761167a611649565b604051601f8501601f19908116603f011681019082821181831017156116a2576116a2611649565b816040528093508581528686860111156116bb57600080fd5b858560208301376000602087830101525050509392505050565b600080600080608085870312156116eb57600080fd5b6116f485611570565b935061170260208601611570565b925060408501359150606085013567ffffffffffffffff81111561172557600080fd5b8501601f8101871361173657600080fd5b6117458782356020840161165f565b91505092959194509250565b6000806040838503121561176457600080fd5b61176d83611570565b9150602083013567ffffffffffffffff81111561178957600080fd5b8301601f8101851361179a57600080fd5b6117a98582356020840161165f565b9150509250929050565b600080604083850312156117c657600080fd5b6117cf83611570565b91506117dd60208401611570565b90509250929050565b600181811c908216806117fa57607f821691505b60208210810361181a57634e487b7160e01b600052602260045260246000fd5b50919050565b634e487b7160e01b600052601160045260246000fd5b8181038181111561034a5761034a611820565b8082018082111561034a5761034a611820565b6000835161186e8184602088016114f4565b8351908301906118828183602088016114f4565b01949350505050565b601f82111561055857600081815260208120601f850160051c810160208610156118b25750805b601f850160051c820191505b818110156118d1578281556001016118be565b505050505050565b815167ffffffffffffffff8111156118f3576118f3611649565b6119078161190184546117e6565b8461188b565b602080601f83116001811461193c57600084156119245750858301515b600019600386901b1c1916600185901b1785556118d1565b600085815260208120601f198616915b8281101561196b5788860151825594840194600190910190840161194c565b50858210156119895787850151600019600388901b60f8161c191681555b5050505050600190811b01905550565b60006001600160a01b038087168352808616602084015250836040830152608060608301526119cb6080830184611518565b9695505050505050565b6000602082840312156119e757600080fd5b81516111ac816114c1565b600060018201611a0457611a04611820565b5060010190565b634e487b7160e01b600052601260045260246000fd5b600082611a3057611a30611a0b565b500490565b600082611a4457611a44611a0b565b500690565b634e487b7160e01b600052603260045260246000fdfea2646970667358221220d5d7492b9ed6096d9ff4b89395b653193ab0227888fe697e4bf13547095f737864736f6c63430008130033",
  "linkReferences": {},
  "deployedLinkReferences": {}
}